:100000000C942A000C9447000C9447000C94470071
:100010000C9447000C9447000C9447000C94470044
:100020000C9447000C9447000C9447000C94470034
:100030000C9447000C943B0D0C94700D0C94A50D82
:100040000C9447000C9447000C9447000C94470014
:100050000C94470011241FBECFE5D8E0DEBFCDBF12
:1000600010E0A0E6B0E0E2E9FEE102C005900D92EA
:10007000A83BB107D9F720E0A8EBB0E001C01D9282
:10008000AE3BB207E1F70E94DA0D0C94470F0C94D7
:100090000000CF93DF9300D00F92CDB7DEB78983F6
:1000A0006A834B838981843008F0F9C08A81883063
:1000B00008F0F5C08B81823008F0F1C08981882F6B
:1000C00090E08330910509F4B3C0843091050CF0C1
:1000D000E5C08230910509F475C0833091050CF0BC
:1000E000DDC0009719F00197B9F1D8C08B81882F36
:1000F00090E0009719F00197C1F0D1C08AE390E039
:10010000FC018081482F8A81282F30E081E090E037
:1001100002C0880F991F2A95E2F78095242F282383
:100120008AE390E0FC01208316C08AE390E0FC01A2
:100130008081482F8A81282F30E081E090E002C042
:10014000880F991F2A95E2F7242F282B8AE390E045
:10015000FC0120830000A3C08B81882F90E00097D2
:1001600019F00197C1F09BC087E390E0FC0180810A
:10017000482F8A81282F30E081E090E002C0880F6C
:10018000991F2A95E2F78095242F282387E390E092
:10019000FC01208316C087E390E0FC018081482F9A
:1001A0008A81282F30E081E090E002C0880F991FFB
:1001B0002A95E2F7242F282B87E390E0FC01208387
:1001C00000006DC08B81882F90E0009719F0019797
:1001D000C1F065C084E390E0FC018081482F8A81F2
:1001E000282F30E081E090E002C0880F991F2A9507
:1001F000E2F78095242F282384E390E0FC012083FC
:1002000016C084E390E0FC018081482F8A81282F6A
:1002100030E081E090E002C0880F991F2A95E2F754
:10022000242F282B84E390E0FC012083000037C0BA
:100230008B81882F90E0009719F00197C1F02FC0B3
:1002400081E390E0FC018081482F8A81282F30E0F3
:1002500081E090E002C0880F991F2A95E2F780950F
:10026000242F282381E390E0FC01208316C081E342
:1002700090E0FC018081482F8A81282F30E081E0C6
:1002800090E002C0880F991F2A95E2F7242F282BAF
:1002900081E390E0FC012083000001C00000000029
:1002A0000F900F900F90DF91CF910895CF93DF9330
:1002B00000D00F92CDB7DEB789836A834B838981E3
:1002C000843008F0F9C08A81883008F0F5C08B814D
:1002D000823008F0F1C08981882F90E08330910549
:1002E00009F4B3C0843091050CF0E5C0823091056B
:1002F00009F475C0833091050CF0DDC0009719F04A
:100300000197B9F1D8C08B81882F90E0009719F040
:100310000197C1F0D1C08BE390E0FC018081482FB0
:100320008A81282F30E081E090E002C0880F991F79
:100330002A95E2F78095242F28238BE390E0FC0197
:10034000208316C08BE390E0FC018081482F8A81D6
:10035000282F30E081E090E002C0880F991F2A9595
:10036000E2F7242F282B8BE390E0FC012083000090
:10037000A3C08B81882F90E0009719F00197C1F0FE
:100380009BC088E390E0FC018081482F8A81282F60
:1003900030E081E090E002C0880F991F2A95E2F7D3
:1003A0008095242F282388E390E0FC01208316C049
:1003B00088E390E0FC018081482F8A81282F30E07B
:1003C00081E090E002C0880F991F2A95E2F7242F60
:1003D000282B88E390E0FC01208300006DC08B8116
:1003E000882F90E0009719F00197C1F065C085E370
:1003F00090E0FC018081482F8A81282F30E081E045
:1004000090E002C0880F991F2A95E2F78095242F6B
:10041000282385E390E0FC01208316C085E390E06B
:10042000FC018081482F8A81282F30E081E090E014
:1004300002C0880F991F2A95E2F7242F282B85E305
:1004400090E0FC012083000037C08B81882F90E072
:10045000009719F00197C1F02FC082E390E0FC01F2
:100460008081482F8A81282F30E081E090E002C00F
:10047000880F991F2A95E2F78095242F282382E37D
:1004800090E0FC01208316C082E390E0FC018081B3
:10049000482F8A81282F30E081E090E002C0880F49
:1004A000991F2A95E2F7242F282B82E390E0FC0184
:1004B0002083000001C0000000000F900F900F90FB
:1004C000DF91CF910895CF93DF9300D00F92CDB7F6
:1004D000DEB78A836B838A81843008F05FC08B81AA
:1004E000883008F05BC08A81882F90E083309105C6
:1004F00009F443C0843091050CF052C0823091055C
:1005000059F1833091050CF04BC0009719F0019719
:1005100091F046C089E390E0FC018081882F90E053
:100520002B81222F30E002C0959587952A95E2F71E
:100530008170898336C086E390E0FC018081882F3A
:1005400090E02B81222F30E002C0959587952A9567
:10055000E2F78170898325C083E390E0FC0180810C
:10056000882F90E02B81222F30E002C0959587954F
:100570002A95E2F78170898314C080E390E0FC0142
:100580008081882F90E02B81222F30E002C095954A
:1005900087952A95E2F78170898303C0000001C026
:1005A000000089810F900F900F90DF91CF910895F7
:1005B000CF93DF9300D0CDB7DEB789836A8389817B
:1005C000843008F073C08A81883008F06FC0898158
:1005D000882F90E08330910509F452C08430910552
:1005E0000CF066C082309105A9F1833091050CF0C2
:1005F0005FC0009719F00197B9F05AC08BE390E003
:10060000FC018081482F8A81282F30E081E090E032
:1006100002C0880F991F2A95E2F7242F28278BE321
:1006200090E0FC01208345C088E390E0FC018081DC
:10063000482F8A81282F30E081E090E002C0880FA7
:10064000991F2A95E2F7242F282788E390E0FC01E0
:1006500020832FC085E390E0FC018081482F8A81B0
:10066000282F30E081E090E002C0880F991F2A9582
:10067000E2F7242F282785E390E0FC01208319C0AE
:1006800082E390E0FC018081482F8A81282F30E0AE
:1006900081E090E002C0880F991F2A95E2F7242F8D
:1006A000282782E390E0FC01208303C0000001C002
:1006B000000000000F900F90DF91CF910895CF932D
:1006C000DF9300D0CDB7DEB789836A838981843018
:1006D00060F58981882F90E08330910501F18430A5
:1006E00091052CF582309105A1F083309105FCF441
:1006F000009719F0019739F01AC08AE390E02A8137
:10070000FC01208315C087E390E02A81FC0120834F
:100710000FC084E390E02A81FC01208309C081E3BB
:1007200090E02A81FC01208303C0000001C000008A
:1007300000000F900F90DF91CF910895CF93DF933A
:1007400000D0CDB7DEB789836A838981843060F5B4
:100750008981882F90E08330910501F184309105E3
:100760002CF582309105A1F083309105FCF40097BF
:1007700019F0019739F01AC08BE390E02A81FC014F
:10078000208315C088E390E02A81FC0120830FC0FC
:1007900085E390E02A81FC01208309C082E390E098
:1007A0002A81FC01208303C0000001C0000000007A
:1007B0000F900F90DF91CF910895CF93DF93CDB736
:1007C000DEB78AE390E021E0FC01208387E390E03C
:1007D000FC01108284E390E0FC01108281E390E050
:1007E00022E0FC0120838BE390E0FC01108288E38F
:1007F00090E0FC01108285E390E0FC01108282E32E
:1008000090E0FC0110820000DF91CF910895CF931A
:10081000DF93CDB7DEB78FE590E0FC0120818FE557
:1008200090E02068FC0120830000DF91CF910895C3
:10083000CF93DF93CDB7DEB78FE590E0FC01208149
:100840008FE590E02F77FC0120830000DF91CF91AE
:100850000895CF93DF93CDB7DEB7A3970FB6F89483
:10086000DEBF0FBECDBF8F8740E063E083E00E9414
:10087000560140E064E083E00E9456016F8582E00B
:100880000E949E0341E065E083E00E94560180E003
:1008900090E0A0E0B0E489839A83AB83BC8320E03E
:1008A00030E04AEF54E469817A818B819C810E9417
:1008B000B20E6C8B7D8B8E8B9F8B8C899D89AE89C4
:1008C000BF898D839E83AF83B88720E030E040E806
:1008D0005FE36D817E818F8198850E942C0E882335
:1008E0002CF481E090E09A87898754C020E03FEFA4
:1008F0004FE757E46D817E818F8198850E94AD0E10
:100900001816D4F520E030E040E251E469817A81A4
:100910008B819C810E94B20E688F798F8A8F9B8F0A
:10092000888D998DAA8DBB8D888B998BAA8BBB8B5B
:10093000688979898A899B890E94310E6C8F7D8FA5
:100940008E8F9F8FAC8DBD8DBA87A98710C088EC24
:1009500090E09C878B878B859C850197F1F79C871E
:100960008B87000089859A8501979A878987898571
:100970009A85892B61F719C06D817E818F81988559
:100980000E94310E68A379A38AA39BA388A199A191
:100990009A87898789859A859E878D878D859E858B
:1009A0000197F1F79E878D87000040E065E083E0C6
:1009B0000E9456010000A3960FB6F894DEBF0FBE4A
:1009C000CDBFDF91CF910895CF93DF93CDB7DEB741
:1009D000A3970FB6F894DEBF0FBECDBF8F8741E05F
:1009E00063E083E00E94560140E064E083E00E94FF
:1009F00056016F8582E00E949E0341E065E083E03E
:100A00000E94560180E090E0A0E0B0E489839A83E0
:100A1000AB83BC8320E030E04AEF54E469817A8103
:100A20008B819C810E94B20E6C8B7D8B8E8B9F8BF9
:100A30008C899D89AE89BF898D839E83AF83B8875A
:100A400020E030E040E85FE36D817E818F81988512
:100A50000E942C0E88232CF481E090E09A878987ED
:100A600054C020E03FEF4FE757E46D817E818F81D6
:100A700098850E94AD0E1816D4F520E030E040E2D3
:100A800051E469817A818B819C810E94B20E688FCA
:100A9000798F8A8F9B8F888D998DAA8DBB8D888B3E
:100AA000998BAA8BBB8B688979898A899B890E94DB
:100AB000310E6C8F7D8F8E8F9F8FAC8DBD8DBA87E1
:100AC000A98710C088EC90E09C878B878B859C85DC
:100AD0000197F1F79C878B87000089859A8501979C
:100AE0009A87898789859A85892B61F719C06D81D5
:100AF0007E818F8198850E94310E68A379A38AA395
:100B00009BA388A199A19A87898789859A859E87C1
:100B10008D878D859E850197F1F79E878D870000D3
:100B200040E065E083E00E9456010000A3960FB606
:100B3000F894DEBF0FBECDBFDF91CF9108950F9324
:100B40001F93CF93DF93CDB7DEB7CA5AD1090FB643
:100B5000F894DEBF0FBECDBF80E090E0A0EFB1E41F
:100B600089AF9AAFABAFBCAF20E030E04AEF54E4BE
:100B700069AD7AAD8BAD9CAD0E94B20E6F966CAF35
:100B80007DAF8EAF9FAF6F97CE01CD966F962CAD98
:100B90003DAD4EAD5FAD6F97DC012D933D934D9311
:100BA0005C93139720E030E040E85FE3CE01CD9600
:100BB000FC0160817181828193810E942C0E8823C7
:100BC0004CF4CE018F5B9F4F21E030E0DC012D9390
:100BD0003C938CC020E03FEF4FE757E4CE01CD9629
:100BE000FC0160817181828193810E94AD0E181693
:100BF0000CF063C020E030E040E251E469AD7AAD32
:100C00008BAD9CAD0E94B20EA3966CAF7DAF8EAF44
:100C10009FAFA397A3962CAD3DAD4EAD5FADA3970F
:100C20006B962CAF3DAF4EAF5FAF6B978E010F5BF6
:100C30001F4F6B966CAD7DAD8EAD9FAD6B970E94D7
:100C4000310EA7966CAF7DAF8EAF9FAFA797A596DD
:100C5000EEADFFADA597D801ED93FC9325C0CE0175
:100C60008D5B9F4F28EC30E0DC012D933C93CE014F
:100C70008D5B9F4FFC01808191810197F1F79E016F
:100C80002D5B3F4FD9018D939C930000CE018F5B6C
:100C90009F4F9E012F5B3F4FF901208131812150F1
:100CA0003109DC012D933C93CE018F5B9F4FFC01FA
:100CB00080819181892B99F634C08E010F5B1F4F83
:100CC000CE01CD96DC016D917D918D919C910E941C
:100CD000310EAB966CAF7DAF8EAF9FAFAB97A99641
:100CE0002EAD3FADA997F80131832083CE018B5BF8
:100CF0009F4F9E012F5B3F4FD9012D913C91FC01ED
:100D000031832083CE018B5B9F4FDC018D919C91C1
:100D10000197F1F79E012B5B3F4FF901918380838F
:100D2000000088E30E94290480E090E0A0E8BFE38F
:100D30008BA79CA7ADA7BEA720E030E04AEF54E404
:100D40006BA57CA58DA59EA50E94B20EAF966CAF3B
:100D50007DAF8EAF9FAFAF97AF962CAD3DAD4EAD93
:100D60005FADAF972FA738AB49AB5AAB20E030E06F
:100D700040E85FE36FA578A989A99AA90E942C0E83
:100D800088232CF481E090E09CAB8BAB65C020E025
:100D90003FEF4FE757E46FA578A989A99AA90E9468
:100DA000AD0E18160CF046C020E030E040E251E4F1
:100DB0006BA57CA58DA59EA50E94B20EE3966CAF97
:100DC0007DAF8EAF9FAFE397E3968CAD9DADAEAD9B
:100DD000BFADE39767968CAF9DAFAEAFBFAF6797E0
:100DE00067966CAD7DAD8EAD9FAD67970E94310E5D
:100DF000E7966CAF7DAF8EAF9FAFE797E596AEAD50
:100E0000BFADE597BCABABAB10C088EC90E09EAB40
:100E10008DAB8DA99EA90197F1F79EAB8DAB00001C
:100E20008BA99CA901979CAB8BAB8BA99CA9892B07
:100E300061F71DC06FA578A989A99AA90E94310EF2
:100E4000EB966CAF7DAF8EAF9FAFEB97E996EEADB3
:100E5000FFADE997FCABEBAB8BA99CA998AF8FAB2F
:100E60008FA998AD0197F1F798AF8FAB00008FE095
:100E70000E94290480E090E0A0E8BFE38D8F9E8F60
:100E8000AF8FB8A320E030E04AEF54E46D8D7E8D43
:100E90008F8D98A10E94B20EEF966CAF7DAF8EAF92
:100EA0009FAFEF97EF962CAD3DAD4EAD5FADEF9799
:100EB00029A33AA34BA35CA320E030E040E85FE322
:100EC00069A17AA18BA19CA10E942C0E88232CF4ED
:100ED00081E090E09EA38DA371C020E03FEF4FE73B
:100EE00057E469A17AA18BA19CA10E94AD0E1816AE
:100EF0000CF04EC020E030E040E251E46D8D7E8D7C
:100F00008F8D98A10E94B20EC158DF4F68837983FC
:100F10008A839B83CF57D040C158DF4F8881998106
:100F2000AA81BB81CF57D04063968CAF9DAFAEAF47
:100F3000BFAF639763966CAD7DAD8EAD9FAD63978C
:100F40000E94310ECD57DF4F688379838A839B835C
:100F5000C358D040CD57DF4FA881B981C358D04086
:100F6000BEA3ADA310C088EC90E098A78FA38FA17B
:100F700098A50197F1F798A78FA300008DA19EA1D6
:100F800001979EA38DA38DA19EA1892B61F721C0FE
:100F900069A17AA18BA19CA10E94310EC957DF4F94
:100FA000688379838A839B83C758D040C957DF4FB2
:100FB000E881F981C758D040FEA3EDA38DA19EA181
:100FC0009AA789A789A59AA50197F1F79AA789A752
:100FD000000081E00E94290480E090E0A0E0B0E4FD
:100FE0008F87988BA98BBA8B20E030E04AEF54E4CE
:100FF0006F85788989899A890E94B20EC557DF4F1B
:10100000688379838A839B83CB58D040C557DF4F51
:10101000288139814A815B81CB58D0402B8B3C8B16
:101020004D8B5E8B20E030E040E85FE36B897C898C
:101030008D899E890E942C0E88232CF481E090E0FB
:10104000988F8F8B71C020E03FEF4FE757E46B899B
:101050007C898D899E890E94AD0E18160CF04EC0B9
:1010600020E030E040E251E46F85788989899A89EF
:101070000E94B20EC157DF4F688379838A839B83B6
:10108000CF58D040C157DF4F88819981AA81BB8159
:10109000CF58D0402F968CAF9DAFAEAFBFAF2F973C
:1010A0002F966CAD7DAD8EAD9FAD2F970E94310E0A
:1010B000CD56DF4F688379838A839B83C359D040A1
:1010C000CD56DF4FA881B981C359D040B88FAF8BBF
:1010D00010C088EC90E09A8F898F898D9A8D019746
:1010E000F1F79A8F898F00008F89988D0197988FDB
:1010F0008F8B8F89988D892B61F721C06B897C89B3
:101100008D899E890E94310EC956DF4F688379838D
:101110008A839B83C759D040C956DF4FE881F98144
:10112000C759D040F88FEF8B8F89988D9C8F8B8F0C
:101130008B8D9C8D0197F1F79C8F8B8F000086E043
:101140000E94290480E090E0A0E8BFE389839A83AD
:10115000AB83BC8320E030E04AEF54E469817A81BC
:101160008B819C810E94B20EC556DF4F68837983C4
:101170008A839B83CB59D040C556DF4F2881398164
:101180004A815B81CB59D0402D833E834F83588762
:1011900020E030E040E85FE36D817E818F819885BB
:1011A0000E942C0E88232CF481E090E09A87898796
:1011B00071C020E03FEF4FE757E46D817E818F8162
:1011C00098850E94AD0E18160CF04EC020E030E05D
:1011D00040E251E469817A818B819C810E94B20E48
:1011E000C156DF4F688379838A839B83CF59D04070
:1011F000C156DF4F88819981AA81BB81CF59D040E8
:101200002B968CAF9DAFAEAFBFAF2B972B966CAD2F
:101210007DAD8EAD9FAD2B970E94310ECD55DF4F2A
:10122000688379838A839B83C35AD040CD55DF4F2F
:10123000A881B981C35AD040BA87A98710C088EC69
:1012400090E09C878B878B859C850197F1F79C8725
:101250008B87000089859A8501979A878987898578
:101260009A85892B61F721C06D817E818F81988558
:101270000E94310EC955DF4F688379838A839B832F
:10128000C75AD040C955DF4FE881F981C75AD040CD
:10129000FA87E98789859A859E878D878D859E85C2
:1012A0000197F1F79E878D8700000000C655DF4F3C
:1012B0000FB6F894DEBF0FBECDBFDF91CF911F9167
:1012C0000F910895CF93DF93CDB7DEB7A2970FB6F6
:1012D000F894DEBF0FBECDBF81E00E94290480E0FC
:1012E00090E0A0E0B0E489839A83AB83BC8320E0E4
:1012F00030E04AEF54E469817A818B819C810E94BD
:10130000B20E6B8B7C8B8D8B9E8B8B899C89AD8970
:10131000BE898D839E83AF83B88720E030E040E8AC
:101320005FE36D817E818F8198850E942C0E8823DA
:101330002CF481E090E09A87898754C020E03FEF49
:101340004FE757E46D817E818F8198850E94AD0EB5
:101350001816D4F520E030E040E251E469817A814A
:101360008B819C810E94B20E6F8B788F898F9A8FB0
:101370008F89988DA98DBA8D8F87988BA98BBA8B01
:101380006F85788989899A890E94310E6B8F7C8F4D
:101390008D8F9E8FAB8DBC8DBA87A98710C088ECCE
:1013A00090E09C878B878B859C850197F1F79C87C4
:1013B0008B87000089859A8501979A878987898517
:1013C0009A85892B61F719C06D817E818F819885FF
:1013D0000E94310E6F8F78A389A39AA38F8D98A155
:1013E0009A87898789859A859E878D878D859E8531
:1013F0000197F1F79E878D8700000000A2960FB637
:10140000F894DEBF0FBECDBFDF91CF910895CF938B
:10141000DF9300D0CDB7DEB79A8389830BC0898173
:101420009A819C012F5F3F4F3A832983FC01808181
:101430000E94E40489819A81FC018081882379F7E4
:10144000000000000F900F90DF91CF910895CF938F
:10145000DF9300D0CDB7DEB789836A838981882F77
:1014600090E08130910519F0029731F00AC08A812D
:1014700081580E94290405C08A8181540E94290450
:10148000000000000F900F90DF91CF910895CF9250
:10149000DF92EF92FF920F931F93CF93DF93CDB71D
:1014A000DEB7A0970FB6F894DEBF0FBECDBF6D8339
:1014B0007E838F83988781E090E0A0E0B0E089830D
:1014C0009A83AB83BC838D819E81AF81B885892B44
:1014D0008A2B8B2B09F05AC080E30E94E40456C08B
:1014E00049815A816B817C81DB01CA01880F991F78
:1014F000AA1FBB1F880F991FAA1FBB1F840F951F10
:10150000A61FB71F880F991FAA1FBB1F6C017D0163
:101510008D819E81AF81B88589879A87AB87BC878B
:101520000AE010E020E030E069857A858B859C85B3
:10153000A90198010E940A0E6D877E878F87988B7C
:101540008D859E85AF85B8898C0D9D1DAE1DBF1DF7
:1015500089839A83AB83BC838D819E81AF81B8855B
:10156000898B9A8BAB8BBC8B0AE010E020E030E0DB
:1015700069897A898B899C89A90198010E940A0E40
:10158000DA01C9018D839E83AF83B8878D819E81E7
:10159000AF81B885892B8A2B8B2B09F0A1CF39C05D
:1015A00089819A81AB81BC818D8B9E8BAF8BB88FEB
:1015B0000AE010E020E030E06D897E898F89988D07
:1015C000A90198010E940A0E698F7A8F8B8F9C8FD8
:1015D000898D9A8DAB8DBC8D805D0E94E4048981DC
:1015E0009A81AB81BC818D8F9E8FAF8FB8A30AE0AB
:1015F00010E020E030E06D8D7E8D8F8D98A1A901E7
:1016000098010E940A0EDA01C90189839A83AB838B
:10161000BC8389819A81AB81BC810197A105B10509
:1016200009F0BECF00000000A0960FB6F894DEBF10
:101630000FBECDBFDF91CF911F910F91FF90EF9023
:10164000DF90CF900895CF93DF9300D000D000D0EB
:101650000F92CDB7DEB79C838B836D834E832F8330
:101660008D81880F880F880F8A838A8180648A839E
:101670008A810E94290419820EC08981882F90E0F6
:101680002B813C81820F931FFC0180810E94E40426
:1016900089818F5F89838981883078F36F818E811A
:1016A0000E94270A8D810E94E404000027960FB64D
:1016B000F894DEBF0FBECDBFDF91CF910895CF93D9
:1016C000DF9300D0CDB7DEB789836A8341E06A81BA
:1016D00089810E94560100000F900F90DF91CF91F9
:1016E0000895CF93DF9300D0CDB7DEB789836A83A7
:1016F00040E06A8189810E94560100000F900F909E
:10170000DF91CF910895CF93DF9300D0CDB7DEB7AF
:1017100089836A838A81282F30E08981882F90E02D
:10172000B9010E94D80200000F900F90DF91CF9175
:101730000895CF93DF9300D0CDB7DEB783E390E079
:101740009A83898389E290E02981FC012083898141
:101750009A81292F332780E490E0FC0120838AE2DC
:1017600090E0FC0120818AE290E02B7FFC01208345
:1017700080E490E026E8FC0120838AE290E0FC010E
:1017800020818AE290E02860FC0120838AE290E0D8
:10179000FC0120818AE290E02061FC0120830000AE
:1017A0000F900F90DF91CF910895CF93DF930F9219
:1017B000CDB7DEB7898300008BE290E0FC01808129
:1017C000829586958770882F90E081709927892B64
:1017D00099F38CE290E02981FC01208300008BE2E8
:1017E00090E0FC018081829586958770882F90E03B
:1017F00081709927892B99F38BE290E0FC0120817D
:101800008BE290E02064FC01208300000F90DF91C8
:10181000CF910895CF93DF9300D000D00F92CDB732
:10182000DEB78D8319821A821B821C8214C08981C3
:101830009A81AB81BC810196A11DB11D89839A83D8
:10184000AB83BC8389819A81AB81BC818838934109
:10185000A105B10571F08BE290E0FC0180818295D9
:1018600086958770882F90E081709927892BF9F2EF
:1018700001C0000089819A81AB81BC818838934185
:10188000A105B105B1F119821A821B821C828CE27A
:1018900090E02D81FC01208314C089819A81AB8165
:1018A000BC810196A11DB11D89839A83AB83BC8342
:1018B00089819A81AB81BC8188389341A105B105AA
:1018C00071F08BE290E0FC018081829586958770B3
:1018D000882F90E081709927892BF9F201C00000D0
:1018E0008BE290E0FC0120818BE290E02064FC011F
:1018F000208300000F900F900F900F900F90DF91BA
:10190000CF910895CF93DF9300D0CDB7DEB79A8300
:1019100089830BC089819A819C012F5F3F4F3A8355
:101920002983FC0180810E940A0C89819A81FC0133
:101930008081882379F7000000000F900F90DF91DD
:10194000CF910895CF93DF930F92CDB7DEB7898300
:101950008BE290E0FC018081829586958770882FCC
:1019600090E081709927019729F48CE290E0298119
:10197000FC01208300000F90DF91CF910895CF9359
:10198000DF93CDB7DEB700008BE290E0FC018081F1
:10199000881F8827881F882F90E081709927892BBE
:1019A00099F38CE290E0FC018081DF91CF91089562
:1019B000CF93DF93CDB7DEB78CE290E0FC0180815E
:1019C000DF91CF910895CF93DF9300D00F92CDB7E1
:1019D000DEB78FEF89831B821A820AC08A819B81BE
:1019E00001969B838A838A819B818838934171F019
:1019F0008BE290E0FC018081881F8827881F882F58
:101A000090E081709927892B49F301C000008A81F9
:101A10009B818838934129F08CE290E0FC01808121
:101A2000898389810F900F900F90DF91CF91089556
:101A3000CF93DF9300D00F92CDB7DEB789837B833E
:101A40006A838981833080F48A819B81892B61F04C
:101A50008981882F90E0880F991F88549F4F2A8191
:101A60003B81FC013183208300000F900F900F9089
:101A7000DF91CF9108951F920F920FB60F9211240C
:101A80002F933F934F935F936F937F938F939F9386
:101A9000AF93BF93EF93FF93CF93DF93CDB7DEB7B1
:101AA0008091B8009091B900892B31F08091B800F5
:101AB0009091B900FC0109950000DF91CF91FF9151
:101AC000EF91BF91AF919F918F917F916F915F91B6
:101AD0004F913F912F910F900FBE0F901F9018952F
:101AE0001F920F920FB60F9211242F933F934F9393
:101AF0005F936F937F938F939F93AF93BF93EF9376
:101B0000FF93CF93DF93CDB7DEB78091BA0090916A
:101B1000BB00892B31F08091BA009091BB00FC0191
:101B200009950000DF91CF91FF91EF91BF91AF91A7
:101B30009F918F917F916F915F914F913F912F91E5
:101B40000F900FBE0F901F9018951F920F920FB617
:101B50000F9211242F933F934F935F936F937F9333
:101B60008F939F93AF93BF93EF93FF93CF93DF93A5
:101B7000CDB7DEB78091BC009091BD00892B31F0CC
:101B80008091BC009091BD00FC0109950000DF919F
:101B9000CF91FF91EF91BF91AF919F918F917F91E5
:101BA0006F915F914F913F912F910F900FBE0F90CA
:101BB0001F901895CF93DF930F92CDB7DEB70E9499
:101BC000DD030E94990B8FEF898380E690E00E94ED
:101BD000820C0E94BF0C898389818F3619F089811C
:101BE0008F3449F460E080E00E945F0B84EA90E06B
:101BF0000E94820C0EC08981863619F08981863454
:101C000041F760E080E00E94710B8DEA90E00E9455
:101C1000820CDFCFA1E21A2EAA1BBB1BFD010DC057
:101C2000AA1FBB1FEE1FFF1FA217B307E407F5078C
:101C300020F0A21BB30BE40BF50B661F771F881F68
:101C4000991F1A9469F760957095809590959B01FE
:101C5000AC01BD01CF0108950E94600E08F481E03F
:101C600008950E948C0E88F09F5798F0B92F9927FD
:101C7000B751B0F0E1F0660F771F881F991F1AF077
:101C8000BA95C9F714C0B13091F00E94A60EB1E028
:101C900008950C94A60E672F782F8827B85F39F027
:101CA000B93FCCF3869577956795B395D9F73EF410
:101CB00090958095709561957F4F8F4F9F4F0895B8
:101CC000990F0008550FAA0BE0E8FEEF161617064D
:101CD000E807F907C0F012161306E407F50798F0B5
:101CE000621B730B840B950B39F40A2661F0232BCE
:101CF000242B252B21F408950A2609F4A140A6954A
:101D00008FEF811D811D089557FD9058440F551F79
:101D100059F05F3F71F04795880F97FB991F61F06D
:101D20009F3F79F087950895121613061406551FE4
:101D3000F2CF4695F1DF08C0161617061806991F50
:101D4000F1CF86957105610508940895E894BB2745
:101D500066277727CB0197F908950E94600E08F453
:101D60008FEF08950E94C50E0C94360F0E94280F25
:101D700038F00E942F0F20F0952311F00C941F0FC4
:101D80000C94250F11240C94A70E0E94840E70F35E
:101D9000959FC1F3950F50E0551F629FF001729F10
:101DA000BB27F00DB11D639FAA27F00DB11DAA1F1F
:101DB000649F6627B00DA11D661F829F2227B00D6C
:101DC000A11D621F739FB00DA11D621F839FA00DF7
:101DD000611D221F749F3327A00D611D231F849F47
:101DE000600D211D822F762F6A2F11249F5750409E
:101DF0009AF0F1F088234AF0EE0FFF1FBB1F661F19
:101E0000771F881F91505040A9F79E3F510580F0E1
:101E10000C941F0F0C94A70E5F3FE4F3983ED4F38D
:101E2000869577956795B795F795E7959F5FC1F785
:101E3000FE2B880F911D9695879597F9089597F930
:101E40009F6780E870E060E008959FEF80EC089560
:101E500000240A9416161706180609060895002489
:101E60000A9412161306140605060895092E039403
:101E7000000C11F4882352F0BB0F40F4BF2B11F477
:101E800060FF04C06F5F7F4F8F4F9F4F0895F8949E
:021E9000FFCF82
:101E9200546F205475726E204F4E20746865204C2A
:101EA2004544205072657373206F206F72204F0D6E
:101EB2000A546F205475726E204F4646207468652E
:101EC200204C45442050726573732066206F722047
:101ED200460D0A004C4544204F4E0D0A004C454425
:081EE200204F46460D0A0000E6
:00000001FF
