:100000000C942A000C943F000C943F000C943F0089
:100010000C943F000C943F000C943F000C943F0064
:100020000C943F000C943F000C943F000C943F0054
:100030000C943F000C943F000C943F000C943F0044
:100040000C943F000C943F000C943F000C943F0034
:100050000C943F0011241FBECFE5D8E0DEBFCDBF1A
:1000600010E0A0E6B0E0E8EEF6E202C005900D92E6
:10007000A836B107D9F70E94D5120C9472130C94CC
:100080000000EF92FF920F931F937B018C0120E001
:1000900030E040E05FE40E94ED0388238CF0C8016B
:1000A000B70120E030E040E05FE40E94B9010E9427
:1000B0004D049B01AC01205030404040504806C0E8
:1000C000C801B7010E944D049B01AC01B901CA01EE
:1000D0001F910F91FF90EF900895A0E0B0E0E3E74B
:1000E000F0E00C943B13DC012B01FA019C9192305F
:1000F00008F439C1EB018881823008F433C19430AF
:1001000069F4843009F02FC111969C91119789816F
:10011000981709F428C1A0E6B0E025C1843009F49D
:1001200021C18230A9F4923009F01DC19A01AD01BC
:1001300088E0EA010990AE01E90109929E0181502F
:10014000C1F7E201898111969C918923818308C1BD
:10015000923009F407C112962D903C901397EB0151
:100160008A819B811496AD90BD90CD90DC901797BD
:10017000EC80FD800E811F819101281B390BB90194
:1001800037FF04C066277727621B730B6032710547
:100190000CF061C0121613066CF537014801062EEB
:1001A00004C096948794779467940A94D2F721E0D8
:1001B00030E040E050E004C0220F331F441F551FC1
:1001C0006A95D2F721503040404050402E213F21C7
:1001D00040235123211531054105510521F021E02E
:1001E00030E040E050E079018A01E628F72808294C
:1001F00019293CC0232BD1F1260E371E35014601AB
:10020000062E04C096948794779467940A94D2F744
:1002100021E030E040E050E004C0220F331F441FD3
:10022000551F6A95D2F721503040404050402A2156
:100230003B214C215D21211531054105510521F05E
:1002400021E030E040E050E059016A01A628B728DB
:10025000C828D9280BC0821593052CF01C01AA24AC
:10026000BB24650103C0EE24FF24870111969C91F5
:10027000D20111968C91981709F445C0992339F051
:10028000A80197012A193B094C095D0906C0A6017E
:1002900095012E193F09400B510B57FD08C01182E3
:1002A0003382228224833583468357831DC081E0B5
:1002B00081833382228288279927DC01821B930B5A
:1002C000A40BB50B84839583A683B7830DC0220F3F
:1002D000331F441F551F24833583468357838281F0
:1002E000938101979383828324813581468157814D
:1002F000DA01C9010197A109B1098F5F9F4FAF4F83
:10030000BF4328F30BC0918333822282EA0CFB1C8B
:100310000C1D1D1DE482F5820683178383E0808314
:10032000248135814681578157FF1AC0C901AA2708
:1003300097FDA095BA2F81709070A070B0705695FF
:10034000479537952795822B932BA42BB52B848328
:100350009583A683B7838281938101969383828359
:10036000DF0101C0D201CD01CDB7DEB7E2E10C94CF
:100370005713A0E2B0E0EFEBF1E00C944713698370
:100380007A838B839C832D833E834F835887E9E058
:10039000EE2EF12CEC0EFD1ECE010196B7010E944F
:1003A00076058E010F5E1F4FCE010596B8010E94A3
:1003B00076058A8991E089278A8BC701B801AE0149
:1003C000475E5F4F0E946D000E94A104A096E6E088
:1003D0000C946313A0E2B0E0E0EFF1E00C9447135B
:1003E00069837A838B839C832D833E834F835887D5
:1003F000F9E0EF2EF12CEC0EFD1ECE010196B701B7
:100400000E9476058E010F5E1F4FCE010596B80142
:100410000E947605C701B801AE01475E5F4F0E949A
:100420006D000E94A104A096E6E00C946313A0E284
:10043000B0E0EDE1F2E00C943B1369837A838B83A7
:100440009C832D833E834F835887CE010196BE0146
:10045000675F7F4F0E947605CE010596BE016F5EF5
:100460007F4F0E9476059985923088F08989823085
:10047000C8F0943019F4823051F404C0843029F467
:10048000923081F480E690E0C6C0923049F420E0DA
:100490009A858A89981321E02A87CE010996BBC0E4
:1004A000823049F420E09A858A89981321E02A8BCA
:1004B000CE014196B0C02D843E844F8458886D880B
:1004C0007E888F88988CEE24FF248701AA24BB2481
:1004D000650140E050E060E070E0E0E0F0E0C10184
:1004E00081709070892BE9F0E60CF71C081D191D2E
:1004F0009A01AB012A0D3B1D4C1D5D1D80E090E073
:10050000A0E0B0E0E614F7040805190520F481E046
:1005100090E0A0E0B0E0BA01A901480F591F6A1F9E
:100520007B1FAA0CBB1CCC1CDD1C97FE08C081E005
:1005300090E0A0E0B0E0A82AB92ACA2ADB2A3196C6
:10054000E032F10549F0660C771C881C991C569422
:10055000479437942794C3CFFA85EA892B893C893D
:100560008B859C85280F391F2E5F3F4F17C0CA010E
:1005700081709070892B61F016950795F794E79438
:1005800080E090E0A0E0B0E8E82AF92A0A2B1B2BD3
:1005900076956795579547952F5F3F4F77FDE7CF46
:1005A0000CC0440F551F661F771F17FD4160EE0CEE
:1005B000FF1C001F111F21503040403090E05907B0
:1005C00090E0690790E4790760F32B8F3C8FDB01A3
:1005D000CA018F779070A070B07080349105A1052A
:1005E000B10561F447FD0AC0E114F10401051105EC
:1005F00029F0405C5F4F6F4F7F4F40781A8EFE1797
:1006000011F081E08A8F4D8F5E8F6F8F78A383E02A
:10061000898FCE0149960E94A104A096E2E10C9434
:100620005713A8E1B0E0E7E1F3E00C9443136983CA
:100630007A838B839C832D833E834F835887B9E0D5
:10064000EB2EF12CEC0EFD1ECE010196B7010E949F
:1006500076058E010F5E1F4FCE010596B8010E94F0
:1006600076052985223008F47EC03989323010F4AD
:10067000B8017CC08A859A8989278A87243011F03D
:10068000223031F4231709F06EC060E670E06EC0CE
:10069000343039F41D861E861F86188A1C861B86F8
:1006A00004C0323021F484E08987B7015FC02B8514
:1006B0003C858B899C89281B390B3C872B87ED84D3
:1006C000FE840F851889AD88BE88CF88D88CEA143F
:1006D000FB040C051D0540F4EE0CFF1C001F111F50
:1006E000215030403C872B8720E030E040E050E054
:1006F00080E090E0A0E0B0E460E070E0EA14FB0489
:100700000C051D0540F0282B392B4A2B5B2BEA18D2
:10071000FB080C091D09B695A79597958795EE0CD2
:10072000FF1C001F111F6F5F7F4F6F31710531F785
:10073000DA01C9018F779070A070B0708034910594
:10074000A105B10561F427FD0AC0E114F10401051A
:10075000110529F0205C3F4F4F4F5F4F20782D87C8
:100760003E874F87588BBE01675F7F4FCB010E944A
:10077000A1046896EAE00C945F13A8E1B0E0E3EC12
:10078000F3E00C94471369837A838B839C832D83D6
:100790003E834F83588789E0E82EF12CEC0EFD1E36
:1007A000CE010196B7010E9476058E010F5E1F4FA4
:1007B000CE010596B8010E9476058985823040F009
:1007C0008989823028F0C701B8010E94EE0501C076
:1007D0008FEF6896E6E00C946313A8E1B0E0E3EFD6
:1007E000F3E00C94471369837A838B839C832D8376
:1007F0003E834F83588789E0E82EF12CEC0EFD1ED6
:10080000CE010196B7010E9476058E010F5E1F4F43
:10081000CE010596B8010E9476058985823040F0A8
:100820008989823028F0C701B8010E94EE0501C015
:100830008FEF6896E6E00C946313A8E1B0E0E3E282
:10084000F4E00C94471369837A838B839C832D8314
:100850003E834F83588789E0E82EF12CEC0EFD1E75
:10086000CE010196B7010E9476058E010F5E1F4FE3
:10087000CE010596B8010E9476058985823040F048
:100880008989823028F0C701B8010E94EE0501C0B5
:1008900081E06896E6E00C946313ACE0B0E0E3E539
:1008A000F4E00C944B1369837A838B839C83CE0191
:1008B0000196BE016B5F7F4F0E9476058D8182306D
:1008C00061F1823050F1843021F48E81882351F11E
:1008D0002EC02F81388537FD20C06E812F31310524
:1008E0001CF06623F9F023C08EE190E0821B930B8D
:1008F00029853A854B855C8504C056954795379583
:1009000027958A95D2F76623B1F05095409530959A
:1009100021953F4F4F4F5F4F0EC020E030E040E049
:1009200050E009C02FEF3FEF4FEF5FE704C020E03A
:1009300030E040E050E8B901CA012C96E2E00C94A6
:100940006713DF92EF92FF920F931F93FC01E480F5
:10095000F58006811781D1808081823048F480E063
:1009600090E0A0E1B0E0E82AF92A0A2B1B2BA5C0F1
:10097000843009F49FC0823021F4EE24FF248701E3
:1009800005C0E114F1040105110519F4E0E0F0E0FF
:1009900096C0628173819FEF623879070CF05BC06B
:1009A00022E83FEF261B370B2A3131052CF020E0DF
:1009B00030E040E050E02AC0B801A701022E04C098
:1009C00076956795579547950A94D2F781E090E020
:1009D000A0E0B0E004C0880F991FAA1FBB1F2A9592
:1009E000D2F70197A109B1098E219F21A023B1233C
:1009F0000097A105B10521F081E090E0A0E0B0E012
:100A00009A01AB01282B392B4A2B5B2BDA01C90148
:100A10008F779070A070B07080349105A105B105FA
:100A200039F427FF09C0205C3F4F4F4F5F4F04C090
:100A3000215C3F4F4F4F5F4FE0E0F0E02030A0E0FF
:100A40003A07A0E04A07A0E45A0710F0E1E0F0E01E
:100A500079018A0127C06038710564F5FB01E1580E
:100A6000FF4FD801C7018F779070A070B0708034AD
:100A70009105A105B10539F4E7FE0DC080E490E0D1
:100A8000A0E0B0E004C08FE390E0A0E0B0E0E80EAA
:100A9000F91E0A1F1B1F17FF05C016950795F7942F
:100AA000E794319687E016950795F794E7948A9531
:100AB000D1F705C0EE24FF248701EFEFF0E06E2FA1
:100AC000679566276795902F9F77D794DD24D794F5
:100AD0008E2F8695492F462B582F5D29B701CA01C5
:100AE0001F910F91FF90EF90DF900895FC01DB01C3
:100AF000408151812281622F6F7770E0221F22276F
:100B0000221F9381892F880F822B282F30E0991F75
:100B10009927991F11969C93119721153105A9F5D5
:100B2000411551056105710511F482E037C082E875
:100B30009FEF13969C938E9312979A01AB0167E0F7
:100B4000220F331F441F551F6A95D1F783E08C9302
:100B50000DC0220F331F441F551F12968D919C917B
:100B60001397019713969C938E931297203080E0F1
:100B7000380780E0480780E4580758F314962D930F
:100B80003D934D935C93179708952F3F310579F46A
:100B9000411551056105710519F484E08C930895A0
:100BA00064FF03C081E08C9312C01C9210C02F57C9
:100BB000304013963C932E93129783E08C9387E0FA
:100BC000440F551F661F771F8A95D1F770641496DE
:100BD0004D935D936D937C93179708951F93DC015C
:100BE000FB019C91923008F447C08081823008F468
:100BF00043C0943051F411961C91843099F5818151
:100C0000682F70E0611B71093FC0843021F0923081
:100C100031F48230B9F18181882389F12DC0119698
:100C20001C9111978230F1F081811817D9F4129636
:100C30002D913C911397828193818217930794F0B1
:100C400028173907BCF014968D919D910D90BC9199
:100C5000A02D2481358146815781281739074A07FD
:100C60005B0718F4112341F00AC082179307A40709
:100C7000B50740F4112319F061E070E005C06FEF93
:100C80007FEF02C060E070E0CB011F910895DF9319
:100C9000CF93CDB7DEB7EAE3F0E081E18083E7E30D
:100CA000F0E08FEB8083E4E3F0E08FEF8083E1E31B
:100CB000F0E082E28083EBE3F0E01082E8E3F0E032
:100CC00080E18083E5E3F0E01082E2E3F0E010826F
:100CD000CF91DF910895DF93CF93CDB7DEB72D97F6
:100CE0000FB6F894DEBF0FBECDBF89836A834B83F6
:100CF0008981282F30E03D872C878C859D85813028
:100D0000910509F44FC02C853D85223031052CF426
:100D10008C859D85009771F0ECC02C853D85223037
:100D2000310509F477C08C859D858330910509F4E0
:100D3000A9C0DFC08B81282F30E03B872A878A85B6
:100D40009B85009731F02A853B8521303105B1F034
:100D5000D0C0AAE3B0E0EAE3F0E08081482F8A81C6
:100D6000282F30E081E090E0022E02C0880F991F0A
:100D70000A94E2F7809584238C93BBC0AAE3B0E089
:100D8000EAE3F0E08081482F8A81282F30E081E07B
:100D900090E0022E02C0880F991F0A94E2F7842B7C
:100DA0008C93A7C08B81282F30E0398728878885CE
:100DB0009985009731F02885398521303105B1F0CA
:100DC00098C0A7E3B0E0E7E3F0E08081482F8A8194
:100DD000282F30E081E090E0022E02C0880F991F9A
:100DE0000A94E2F7809584238C9383C0A7E3B0E054
:100DF000E7E3F0E08081482F8A81282F30E081E00E
:100E000090E0022E02C0880F991F0A94E2F7842B0B
:100E10008C936FC08B81282F30E03F832E838E818F
:100E20009F81009731F02E813F8121303105B1F053
:100E300060C0A4E3B0E0E4E3F0E08081482F8A8161
:100E4000282F30E081E090E0022E02C0880F991F29
:100E50000A94E2F7809584238C934BC0A4E3B0E01E
:100E6000E4E3F0E08081482F8A81282F30E081E0A0
:100E700090E0022E02C0880F991F0A94E2F7842B9B
:100E80008C9337C08B81282F30E03D832C838C815D
:100E90009D81009731F02C813D8121303105B1F0E9
:100EA00028C0A1E3B0E0E1E3F0E08081482F8A812F
:100EB000282F30E081E090E0022E02C0880F991FB9
:100EC0000A94E2F7809584238C9313C0A1E3B0E0E9
:100ED000E1E3F0E08081482F8A81282F30E081E033
:100EE00090E0022E02C0880F991F0A94E2F7842B2B
:100EF0008C932D960FB6F894DEBF0FBECDBFCF9169
:100F0000DF910895DF93CF93CDB7DEB72D970FB65E
:100F1000F894DEBF0FBECDBF89836A834B8389817E
:100F2000282F30E03D872C878C859D858130910569
:100F300009F44FC02C853D85223031052CF48C8579
:100F40009D85009771F0EBC02C853D8522303105E1
:100F500009F477C08C859D858330910509F4A9C07B
:100F6000DEC08B81282F30E03B872A878A859B85CE
:100F70000097D1F02A853B852130310509F0CFC09B
:100F8000ABE3B0E0EBE3F0E08081482F8A81282FCB
:100F900030E081E090E0022E02C0880F991F0A9491
:100FA000E2F7842B8C93BBC0ABE3B0E0EBE3F0E063
:100FB0008081482F8A81282F30E081E090E0022E46
:100FC00002C0880F991F0A94E2F7809584238C93BE
:100FD000A6C08B81282F30E039872887888599859E
:100FE0000097D1F0288539852130310509F097C067
:100FF000A8E3B0E0E8E3F0E08081482F8A81282F61
:1010000030E081E090E0022E02C0880F991F0A9420
:10101000E2F7842B8C9383C0A8E3B0E0E8E3F0E030
:101020008081482F8A81282F30E081E090E0022ED5
:1010300002C0880F991F0A94E2F7809584238C934D
:101040006EC08B81282F30E03F832E838E819F815D
:101050000097D1F02E813F812130310509F05FC02A
:10106000A5E3B0E0E5E3F0E08081482F8A81282FF6
:1010700030E081E090E0022E02C0880F991F0A94B0
:10108000E2F7842B8C934BC0A5E3B0E0E5E3F0E0FE
:101090008081482F8A81282F30E081E090E0022E65
:1010A00002C0880F991F0A94E2F7809584238C93DD
:1010B00036C08B81282F30E03D832C838C819D812D
:1010C0000097C9F02C813D812130310541F5A2E323
:1010D000B0E0E2E3F0E08081482F8A81282F30E001
:1010E00081E090E0022E02C0880F991F0A94E2F777
:1010F000842B8C9314C0A2E3B0E0E2E3F0E08081A3
:10110000482F8A81282F30E081E090E0022E02C033
:10111000880F991F0A94E2F7809584238C932D966B
:101120000FB6F894DEBF0FBECDBFCF91DF9108950B
:10113000DF93CF9300D000D0CDB7DEB789836A8329
:101140008981282F30E03C832B838B819C818130E7
:101150009105D1F02B813C81223031052CF48B811B
:101160009C81009761F01EC02B813C8122303105AB
:1011700081F08B819C818330910581F013C0EAE37B
:10118000F0E08A8180830EC0E7E3F0E08A8180830B
:1011900009C0E4E3F0E08A81808304C0E1E3F0E089
:1011A0008A8180830F900F900F900F90CF91DF91E5
:1011B0000895DF93CF9300D000D0CDB7DEB78983F9
:1011C0006A838981282F30E03C832B838B819C812B
:1011D00081309105D1F02B813C81223031052CF4F6
:1011E0008B819C81009761F01EC02B813C81223055
:1011F000310581F08B819C818330910581F013C092
:10120000EBE3F0E08A8180830EC0E8E3F0E08A81BE
:10121000808309C0E5E3F0E08A81808304C0E2E3D3
:10122000F0E08A8180830F900F900F900F90CF9104
:10123000DF910895DF93CF9300D000D00F92CDB708
:10124000DEB78A836B838FEF89838A81282F30E012
:101250003D832C834C815D814130510541F18C816E
:101260009D818230910534F42C813D812115310519
:1012700061F052C04C815D814230510551F18C8149
:101280009D8183309105B9F147C0E9E3F0E08081A9
:10129000282F30E08B81882F90E0A90102C055955E
:1012A00047958A95E2F7CA018170898335C0E6E3E4
:1012B000F0E08081282F30E08B81882F90E0A90119
:1012C00002C0559547958A95E2F7CA0181708983D6
:1012D00023C0E3E3F0E08081282F30E08B81882F6A
:1012E00090E0A90102C0559547958A95E2F7CA0199
:1012F0008170898311C0E0E3F0E08081282F30E025
:101300008B81882F90E0A90102C0559547958A9559
:10131000E2F7CA018170898389810F900F900F9045
:101320000F900F90CF91DF910895DF93CF9300D06E
:1013300000D0CDB7DEB789836A838981282F30E05A
:101340003C832B838B819C818130910549F12B81DA
:101350003C81223031052CF48B819C81009761F017
:101360005AC02B813C812230310571F18B819C81E7
:1013700083309105E9F14FC0ABE3B0E0EBE3F0E07F
:101380008081482F8A81282F30E081E090E0022E72
:1013900002C0880F991F0A94E2F784278C933BC000
:1013A000A8E3B0E0E8E3F0E08081482F8A81282FAD
:1013B00030E081E090E0022E02C0880F991F0A946D
:1013C000E2F784278C9327C0A5E3B0E0E5E3F0E0E3
:1013D0008081482F8A81282F30E081E090E0022E22
:1013E00002C0880F991F0A94E2F784278C9313C0D8
:1013F000A2E3B0E0E2E3F0E08081482F8A81282F69
:1014000030E081E090E0022E02C0880F991F0A941C
:10141000E2F784278C930F900F900F900F90CF914D
:10142000DF910895DF93CF93CDB7DEB762970FB604
:10143000F894DEBF0FBECDBF998B888B6A8B8889ED
:101440009989892F992780658F870E94AB118F8595
:101450000E94F81188890E9468128A890E94681285
:101460000E94C01280E090E0A0E2B1E48B879C87EC
:10147000AD87BE876B857C858D859E8520E030E0BD
:101480004AEF54E40E941702DC01CB018F83988756
:10149000A987BA876F81788589859A8520E030E0B1
:1014A00040E85FE30E941D0488232CF481E090E073
:1014B0009E838D833FC06F81788589859A8520E0E2
:1014C0003FEF4FE757E40E94BD0318164CF56B85BC
:1014D0007C858D859E8520E030E040E251E40E94CD
:1014E0001702DC01CB01BC01CD010E944100DC01EF
:1014F000CB019E838D830FC088EC90E09C838B830F
:101500008B819C810197F1F79C838B838D819E81D8
:1015100001979E838D838D819E81009769F714C00A
:101520006F81788589859A850E944100DC01CB0115
:101530009E838D838D819E819A83898389819A81FF
:101540000197F1F79A83898362960FB6F894DEBF0C
:101550000FBECDBFCF91DF910895DF93CF9300D021
:1015600000D0CDB7DEB79C838B838B819C81892F84
:101570009927806589830E94AB1189810E94F811A7
:101580008B810E9468120E94D51189810E943012BD
:10159000CE0102960E9491120E94C0128A810F9081
:1015A0000F900F900F90CF91DF910895DF93CF931D
:1015B000CDB7DEB7AFE5B0E0EFE5F0E08081806861
:1015C0008C93CF91DF910895DF93CF93CDB7DEB7A2
:1015D000AFE5B0E0EFE5F0E080818F778C93CF91BD
:1015E000DF910895DF93CF93CDB7DEB72F970FB676
:1015F000F894DEBF0FBECDBF8F8781E060E041E091
:101600000E94820781E061E040E00E94820780E062
:101610006F850E94D90881E062E041E00E94820764
:1016200080E090E0A0E0B0E48B879C87AD87BE8728
:101630006B857C858D859E8520E030E04AEF54E403
:101640000E941702DC01CB018F839887A987BA8794
:101650006F81788589859A8520E030E040E85FE3F6
:101660000E941D0488232CF481E090E09E838D83EA
:101670003FC06F81788589859A8520E03FEF4FE7ED
:1016800057E40E94BD0318164CF56B857C858D854B
:101690009E8520E030E040E251E40E941702DC0128
:1016A000CB01BC01CD010E944100DC01CB019E8336
:1016B0008D830FC088EC90E09C838B838B819C8111
:1016C0000197F1F79C838B838D819E8101979E8387
:1016D0008D838D819E81009769F714C06F81788515
:1016E00089859A850E944100DC01CB019E838D8310
:1016F0008D819E819A83898389819A810197F1F7EF
:101700009A83898381E062E040E00E9482072F96FD
:101710000FB6F894DEBF0FBECDBFCF91DF91089515
:10172000DF93CF93CDB7DEB72F970FB6F894DEBF18
:101730000FBECDBF8F8781E060E040E00E9482074E
:1017400081E061E040E00E94820780E06F850E94B6
:10175000D90881E062E041E00E94820780E090E0E9
:10176000A0E0B0E48B879C87AD87BE876B857C85C6
:101770008D859E8520E030E04AEF54E40E941702F8
:10178000DC01CB018F839887A987BA876F81788521
:1017900089859A8520E030E040E85FE30E941D04DF
:1017A00088232CF481E090E09E838D833FC06F817D
:1017B000788589859A8520E03FEF4FE757E40E94BE
:1017C000BD0318164CF56B857C858D859E8520E0C4
:1017D00030E040E251E40E941702DC01CB01BC0181
:1017E000CD010E944100DC01CB019E838D830FC09F
:1017F00088EC90E09C838B838B819C810197F1F72F
:101800009C838B838D819E8101979E838D838D81A7
:101810009E81009769F714C06F81788589859A85C4
:101820000E944100DC01CB019E838D838D819E81CE
:101830009A83898389819A810197F1F79A838983B1
:1018400081E062E040E00E9482072F960FB6F89494
:10185000DEBF0FBECDBFCF91DF9108950F931F93D1
:10186000DF93CF93CDB7DEB7CC54D0400FB6F8940A
:10187000DEBF0FBECDBFFE01E75BFF4F80E090E013
:10188000A0EFB1E480839183A283B3838E010B5BCD
:101890001F4FFE01E75BFF4F608171818281938161
:1018A00020E030E04AEF54E40E941702DC01CB0153
:1018B000F80180839183A283B383FE01EB5BFF4F2A
:1018C000608171818281938120E030E040E85FE3B4
:1018D0000E941D04882344F4FE01ED5BFF4F81E06C
:1018E00090E09183808364C0FE01EB5BFF4F6081D9
:1018F00071818281938120E03FEF4FE757E40E949E
:10190000BD0318160CF043C0FE01E75BFF4F60817A
:1019100071818281938120E030E040E251E40E94B5
:101920001702DC01CB018E010D5B1F4FBC01CD0105
:101930000E944100DC01CB01F801918380831FC02C
:10194000FE01EF5BFF4F88EC90E091838083FE0106
:10195000EF5BFF4F808191810197F1F7FE01EF5B13
:10196000FF4F91838083DE01AD5BBF4FFE01ED5BD6
:10197000FF4F80819181019711969C938E93FE0178
:10198000ED5BFF4F808191810097D1F624C08E01DD
:101990000D5B1F4FFE01EB5BFF4F60817181828108
:1019A00093810E944100DC01CB01F8019183808387
:1019B000FE01ED5BFF4F80819181FE01FF969183D7
:1019C0008083FE01FF96808191810197F1F7FE01EE
:1019D000FF969183808388E30E94900B80E090E0E3
:1019E000A0E2B2E48BAF9CAFADAFBEAF6BAD7CAD50
:1019F0008DAD9EAD2BEA3AEA4AE250E40E9417020E
:101A0000DC01CB018FAB98AFA9AFBAAF6FA978ADAE
:101A100089AD9AAD20E030E040E85FE30E941D040C
:101A200088231CF481E08EAB91C06FA978AD89AD9D
:101A30009AAD20E030E04FE753E40E94BD03181652
:101A40000CF07BC06BAD7CAD8DAD9EAD20E030E089
:101A50004AE754E40E941103DC01CB018AAB9BAB43
:101A6000ACABBDAB6AA97BA98CA99DA920E030E0F5
:101A70004AEF54E40E941702DC01CB018EA79FA716
:101A8000A8ABB9AB6EA57FA588A999A920E030E0E5
:101A900040E85FE30E941D0488232CF481E090E07D
:101AA0009DA78CA73FC06EA57FA588A999A920E016
:101AB0003FEF4FE757E40E94BD0318164CF56AA9A3
:101AC0007BA98CA99DA920E030E040E251E40E946E
:101AD0001702DC01CB01BC01CD010E944100DC01F9
:101AE000CB019DA78CA70FC088EC90E09BA78AA78D
:101AF0008AA59BA50197F1F79BA78AA78CA59DA511
:101B000001979DA78CA78CA59DA5009769F724C078
:101B10006EA57FA588A999A90E944100DC01CB018F
:101B20009DA78CA78CA59DA599A788A788A599A5F1
:101B30000197F1F799A788A70FC06FA978AD89AD74
:101B40009AAD0E944100DC01CB018EAB8EA98FA320
:101B50008FA18A95F1F78FA38FE00E94900B80E010
:101B600090E0A0E2B2E48BA39CA3ADA3BEA36BA1C3
:101B70007CA18DA19EA12BEA3AEA4AE250E40E94A0
:101B80001702DC01CB018F8F98A3A9A3BAA36F8D95
:101B900078A189A19AA120E030E040E85FE30E94AB
:101BA0001D0488231CF481E08E8F91C06F8D78A175
:101BB00089A19AA120E030E04FE753E40E94BD03E1
:101BC00018160CF07BC06BA17CA18DA19EA120E01A
:101BD00030E04AE754E40E941103DC01CB018A8F14
:101BE0009B8FAC8FBD8F6A8D7B8D8C8D9D8D20E002
:101BF00030E04AEF54E40E941702DC01CB018E8BE7
:101C00009F8BA88FB98F6E897F89888D998D20E0F1
:101C100030E040E85FE30E941D0488232CF481E05B
:101C200090E09D8B8C8B3FC06E897F89888D998DCC
:101C300020E03FEF4FE757E40E94BD0318164CF534
:101C40006A8D7B8D8C8D9D8D20E030E040E251E4EB
:101C50000E941702DC01CB01BC01CD010E944100B2
:101C6000DC01CB019D8B8C8B0FC088EC90E09B8BB3
:101C70008A8B8A899B890197F1F79B8B8A8B8C8948
:101C80009D8901979D8B8C8B8C899D89009769F725
:101C900024C06E897F89888D998D0E944100DC0166
:101CA000CB019D8B8C8B8C899D89998B888B8889A6
:101CB00099890197F1F7998B888B0FC06F8D78A167
:101CC00089A19AA10E944100DC01CB018E8F8E8DEB
:101CD0008F878F858A95F1F78F8781E00E94900B1F
:101CE00080E090E0A0E0B0E48B879C87AD87BE8762
:101CF0006B857C858D859E8520E030E04AEF54E43D
:101D00000E941702DC01CB018F839887A987BA87CD
:101D10006F81788589859A8520E030E040E85FE32F
:101D20000E941D0488232CF481E090E09E838D8323
:101D30003FC06F81788589859A8520E03FEF4FE726
:101D400057E40E94BD0318164CF56B857C858D8584
:101D50009E8520E030E040E251E40E941702DC0161
:101D6000CB01BC01CD010E944100DC01CB019E836F
:101D70008D830FC088EC90E09C838B838B819C814A
:101D80000197F1F79C838B838D819E8101979E83C0
:101D90008D838D819E81009769F714C06F8178854E
:101DA00089859A850E944100DC01CB019E838D8349
:101DB0008D819E819A83898389819A810197F1F728
:101DC0009A83898386E00E94900BC45BDF4F0FB635
:101DD000F894DEBF0FBECDBFCF91DF911F910F9161
:101DE0000895DF93CF93CDB7DEB72E970FB6F89453
:101DF000DEBF0FBECDBF81E00E94900B80E090E07F
:101E0000A0E0B0E48B879C87AD87BE876B857C851F
:101E10008D859E8520E030E04AEF54E40E94170251
:101E2000DC01CB018F839887A987BA876F8178857A
:101E300089859A8520E030E040E85FE30E941D0438
:101E400088232CF481E090E09E838D833FC06F81D6
:101E5000788589859A8520E03FEF4FE757E40E9417
:101E6000BD0318164CF56B857C858D859E8520E01D
:101E700030E040E251E40E941702DC01CB01BC01DA
:101E8000CD010E944100DC01CB019E838D830FC0F8
:101E900088EC90E09C838B838B819C810197F1F788
:101EA0009C838B838D819E8101979E838D838D8101
:101EB0009E81009769F714C06F81788589859A851E
:101EC0000E944100DC01CB019E838D838D819E8128
:101ED0009A83898389819A810197F1F79A8389830B
:101EE0002E960FB6F894DEBF0FBECDBFCF91DF9117
:101EF0000895DF93CF9300D0CDB7DEB79A8389835F
:101F00000BC0E981FA81208189819A8101969A83A7
:101F10008983822F0E94F20AE981FA8180818823D5
:101F200081F70F900F90CF91DF910895DF93CF93BA
:101F3000CDB7DEB762970FB6F894DEBF0FBECDBF48
:101F40008F87688B8F85282F30E03A8B298B898982
:101F50009A898130910531F029893A8922303105F9
:101F600031F009C0888981580E94900B04C088898B
:101F700081540E94900B80E090E0A0E8BFE38B8743
:101F80009C87AD87BE876B857C858D859E8520E08F
:101F900030E04AEF54E40E941702DC01CB018F834A
:101FA0009887A987BA876F81788589859A8520E087
:101FB00030E040E85FE30E941D0488232CF481E0B8
:101FC00090E09E838D833FC06F81788589859A8557
:101FD00020E03FEF4FE757E40E94BD0318164CF591
:101FE0006B857C858D859E8520E030E040E251E464
:101FF0000E941702DC01CB01BC01CD010E9441000F
:10200000DC01CB019E838D830FC088EC90E09C8324
:102010008B838B819C810197F1F79C838B838D81CE
:102020009E8101979E838D838D819E81009769F7A4
:1020300014C06F81788589859A850E944100DC01F2
:10204000CB019E838D838D819E819A838983898133
:102050009A810197F1F79A83898362960FB6F89473
:10206000DEBF0FBECDBFCF91DF910895EF92FF92FB
:102070000F931F93DF93CF93CDB7DEB72A970FB699
:10208000F894DEBF0FBECDBF6D837E838F839887AC
:1020900081E090E0A0E0B0E089839A83AB83BC83C9
:1020A0008D819E81AF81B8850097A105B105D1F5DD
:1020B00080E30E94F20A36C089819A81AB81BC819B
:1020C0002AE030E040E050E0BC01CD010E94FA126D
:1020D0007B018C018D819E81AF81B8852AE030E043
:1020E00040E050E0BC01CD010E941913DC01CB019E
:1020F0008E0D9F1DA01FB11F89839A83AB83BC8364
:102100008D819E81AF81B8852AE030E040E050E0CB
:10211000BC01CD010E941913DA01C9018D839E8390
:10212000AF83B8878D819E81AF81B8850097A10567
:10213000B10511F623C089819A81AB81BC812AE067
:1021400030E040E050E0BC01CD010E941913DC01F9
:10215000CB01805D0E94F20A89819A81AB81BC81AA
:102160002AE030E040E050E0BC01CD010E941913AC
:10217000DA01C90189839A83AB83BC8389819A81FF
:10218000AB81BC8181309105A105B105A1F62A96EC
:102190000FB6F894DEBF0FBECDBFCF91DF911F9178
:1021A0000F91FF90EF900895DF93CF93CDB7DEB7F7
:1021B00027970FB6F894DEBF0FBECDBF9C838B83ED
:1021C0006D834E832F838D81882F90E0880F991F18
:1021D000880F991F880F991F8A838A8180648A8358
:1021E0008A810E94900B19820EC08981282F30E0CD
:1021F0008B819C81FC01E20FF31F80810E94F20A17
:1022000089818F5F89838981883078F38E816F819E
:102210000E94960F8D810E94F20A27960FB6F894BD
:10222000DEBF0FBECDBFCF91DF910895DF93CF9377
:1022300000D0CDB7DEB789836A8389816A8141E0A6
:102240000E9482070F900F90CF91DF910895DF9346
:10225000CF9300D0CDB7DEB789836A8389816A8145
:1022600040E00E9482070F900F90CF91DF91089578
:10227000DF93CF9300D00F92CDB7DEB789836A8307
:102280004B8389816A814B810E9482070F900F9056
:102290000F90CF91DF910895DF93CF9300D0CDB70A
:1022A000DEB789836A8389816A810E9495090F90CC
:1022B0000F90CF91DF910895DF93CF930F92CDB719
:1022C000DEB78983A6E5B0E0E6E5F0E080818064D2
:1022D0008C93E0E2F0E082E08083A1E2B0E0E1E212
:1022E000F0E080818E7F8C93A1E2B0E0E1E2F0E04B
:1022F00080818D7F8C938981882329F0E2E2F0E050
:102300008981880F8083A6E5B0E0E6E5F0E0808172
:1023100084608C930F90CF91DF910895DF93CF93DA
:102320000F92CDB7DEB78983E2E2F0E08981880FB2
:102330008083A6E5B0E0E6E5F0E0808180648C93E0
:10234000A6E5B0E0E6E5F0E0808184608C930F9034
:10235000CF91DF910895DF93CF930F92CDB7DEB782
:102360001982A6E5B0E0E6E5F0E0808180628C931A
:10237000A6E5B0E0E6E5F0E0808180688C93E6E5D4
:10238000F0E080818823DCF7E1E2F0E08081882FB3
:1023900090E0887F90708830910511F081E089830A
:1023A00089810F90CF91DF910895DF93CF930F92A2
:1023B000CDB7DEB71982A6E5B0E0E6E5F0E08081B2
:1023C000846A8C93E6E5F0E080818823DCF7E1E223
:1023D000F0E08081882F90E0887F907080319105B7
:1023E00011F082E0898389810F90CF91DF91089568
:1023F000DF93CF9300D0CDB7DEB78A831982E3E2B3
:10240000F0E08A81880F8083A3E2B0E0E3E2F0E0AD
:1024100080818E7F8C93A6E5B0E0E6E5F0E08081D8
:102420008F7D8C93A6E5B0E0E6E5F0E080818068E2
:102430008C93E6E5F0E080818823DCF7E1E2F0E0D0
:102440008081882F90E0887F90708831910511F00D
:1024500083E0898389810F900F90CF91DF91089558
:10246000DF93CF9300D0CDB7DEB78A831982E3E242
:10247000F0E08A81880F8083A3E2B0E0E3E2F0E03D
:10248000808181608C93A6E5B0E0E6E5F0E0808194
:102490008F7D8C93A6E5B0E0E6E5F0E08081806872
:1024A0008C93E6E5F0E080818823DCF7E1E2F0E060
:1024B0008081882F90E0887F90708034910511F0A2
:1024C00084E0898389810F900F90CF91DF910895E7
:1024D000DF93CF9300D0CDB7DEB78A831982E3E2D2
:1024E000F0E08A818083A6E5B0E0E6E5F0E0808157
:1024F00080688C93E6E5F0E080818823DCF7E1E2F8
:10250000F0E08081882F90E0887F9070883291057C
:1025100011F085E0898389810F900F90CF91DF9131
:102520000895DF93CF9300D00F92CDB7DEB79B8392
:102530008A831982A6E5B0E0E6E5F0E08081806854
:102540008C93E6E5F0E080818823DCF7E1E2F0E0BF
:102550008081882F90E0887F90708035910519F0F8
:1025600086E0898306C0E3E2F0E08081EA81FB81B6
:10257000808389810F900F900F90CF91DF91089504
:10258000DF93CF93CDB7DEB7A6E5B0E0E6E5F0E0A8
:10259000808180618C93A6E5B0E0E6E5F0E0808183
:1025A00080688C93CF91DF910895DF93CF930F9242
:1025B000CDB7DEB719820E9447060E942E0C80E03C
:1025C0000E945C1185E090E067E00E94120A85E0BD
:1025D00090E00E94AD0A89838981873051F480E0C0
:1025E00060E041E00E946B0680E060E041E00E9414
:1025F0008207FFCF629FD001739FF001829FE00DA1
:10260000F11D649FE00DF11D929FF00D839FF00D71
:10261000749FF00D659FF00D9927729FB00DE11D1D
:10262000F91F639FB00DE11DF91FBD01CF011124FA
:102630000895A1E21A2EAA1BBB1BFD010DC0AA1F03
:10264000BB1FEE1FFF1FA217B307E407F50720F01B
:10265000A21BB30BE40BF50B661F771F881F991F96
:102660001A9469F760957095809590959B01AC01DF
:10267000BD01CF0108952F923F924F925F926F92CA
:102680007F928F929F92AF92BF92CF92DF92EF9202
:10269000FF920F931F93CF93DF93CDB7DEB7CA1B83
:1026A000DB0B0FB6F894DEBF0FBECDBF09942A88AE
:1026B000398848885F846E847D848C849B84AA8456
:1026C000B984C884DF80EE80FD800C811B81AA81E3
:1026D000B981CE0FD11D0FB6F894DEBF0FBECDBFAE
:0826E000ED010895F894FFCF0D
:0826E8000000000000000000EA
:00000001FF
