:100000000C942A000C946F050C94A4050C94D9054B
:100010000C943C000C943C000C943C000C943C0070
:100020000C943C000C943C000C943C000C943C0060
:100030000C943C000C943C000C943C000C943C0050
:100040000C943C000C943C000C943C000C943C0040
:100050000C943C0011241FBECFE5D8E0DEBFCDBF1D
:1000600020E0A0E6B0E001C01D92A636B207E1F79D
:100070000E944A000C9465060C940000CF93DF9315
:10008000CDB7DEB760E080E00E9454060000DF914B
:10009000CF910895CF93DF93CDB7DEB70E94E503EC
:1000A00062E080E00E940F046EE370E080E00E9456
:1000B000340580E00E9483040E940E06FFCFCF9398
:1000C000DF9300D00F92CDB7DEB789836A834B836D
:1000D0008981843008F0F8C08A81883008F0F4C043
:1000E0008B81823008F0F0C08981882F90E08330C6
:1000F000910509F4B3C0843091050CF0E5C082305D
:10010000910509F475C0833091050CF0DDC00097AE
:1001100019F00197B9F1D8C08B81882F90E0009732
:1001200019F00197C1F0D0C08AE390E0FC01808112
:10013000482F8A81282F30E081E090E002C0880FAC
:10014000991F2A95E2F78095242F28238AE390E0CF
:10015000FC01208316C08AE390E0FC018081482FD7
:100160008A81282F30E081E090E002C0880F991F3B
:100170002A95E2F7242F282B8AE390E0FC012083C4
:100180000000A2C08B81882F90E0009719F00197A2
:10019000C1F09AC087E390E0FC018081482F8A81FA
:1001A000282F30E081E090E002C0880F991F2A9547
:1001B000E2F78095242F282387E390E0FC01208339
:1001C00016C087E390E0FC018081482F8A81282FA8
:1001D00030E081E090E002C0880F991F2A95E2F795
:1001E000242F282B87E390E0FC01208300006CC0C3
:1001F0008B81882F90E0009719F00197C1F064C0BF
:1002000084E390E0FC018081482F8A81282F30E030
:1002100081E090E002C0880F991F2A95E2F780954F
:10022000242F282384E390E0FC01208316C084E37C
:1002300090E0FC018081482F8A81282F30E081E006
:1002400090E002C0880F991F2A95E2F7242F282BEF
:1002500084E390E0FC012083000036C08B81882F6E
:1002600090E0009719F00197C1F02DC081E390E074
:10027000FC018081482F8A81282F30E081E090E0C6
:1002800002C0880F991F2A95E2F78095242F282312
:1002900081E390E0FC01208316C081E390E0FC0143
:1002A0008081482F8A81282F30E081E090E002C0D1
:1002B000880F991F2A95E2F7242F282B81E390E0DD
:1002C000FC0120830000000000000F900F900F90B1
:1002D000DF91CF910895CF93DF9300D00F92CDB7E8
:1002E000DEB789836A834B838981843008F0F8C044
:1002F0008A81883008F0F4C08B81823008F0F0C029
:100300008981882F90E08330910509F4B3C084304F
:1003100091050CF0E5C08230910509F475C0833079
:1003200091050CF0DDC0009719F00197B9F1D8C024
:100330008B81882F90E0009719F00197C1F0D0C011
:100340008BE390E0FC018081482F8A81282F30E0E8
:1003500081E090E002C0880F991F2A95E2F780950E
:10036000242F28238BE390E0FC01208316C08BE32D
:1003700090E0FC018081482F8A81282F30E081E0C5
:1003800090E002C0880F991F2A95E2F7242F282BAE
:100390008BE390E0FC0120830000A2C08B81882FBA
:1003A00090E0009719F00197C1F09AC088E390E0BF
:1003B000FC018081482F8A81282F30E081E090E085
:1003C00002C0880F991F2A95E2F78095242F2823D1
:1003D00088E390E0FC01208316C088E390E0FC01F4
:1003E0008081482F8A81282F30E081E090E002C090
:1003F000880F991F2A95E2F7242F282B88E390E095
:10040000FC01208300006CC08B81882F90E0009756
:1004100019F00197C1F064C085E390E0FC01808190
:10042000482F8A81282F30E081E090E002C0880FB9
:10043000991F2A95E2F78095242F282385E390E0E1
:10044000FC01208316C085E390E0FC018081482FE9
:100450008A81282F30E081E090E002C0880F991F48
:100460002A95E2F7242F282B85E390E0FC012083D6
:10047000000036C08B81882F90E0009719F001971B
:10048000C1F02DC082E390E0FC018081482F8A8179
:10049000282F30E081E090E002C0880F991F2A9554
:1004A000E2F78095242F282382E390E0FC0120834B
:1004B00016C082E390E0FC018081482F8A81282FBA
:1004C00030E081E090E002C0880F991F2A95E2F7A2
:1004D000242F282B82E390E0FC0120830000000001
:1004E00000000F900F900F90DF91CF910895CF9360
:1004F000DF9300D00F92CDB7DEB78A836B838A81FA
:10050000843008F05FC08B81883008F05BC08A813E
:10051000882F90E08330910509F443C08430910521
:100520000CF050C08230910559F1833091050CF0E8
:1005300049C0009719F0019791F044C089E390E019
:10054000FC018081882F90E02B81222F30E002C0B7
:10055000959587952A95E2F78170898333C086E364
:1005600090E0FC018081882F90E02B81222F30E0E9
:1005700002C0959587952A95E2F78170898322C0FC
:1005800083E390E0FC018081882F90E02B81222F73
:1005900030E002C0959587952A95E2F781708983AE
:1005A00011C080E390E0FC018081882F90E02B81D6
:1005B000222F30E002C0959587952A95E2F7817049
:1005C0008983000089810F900F900F90DF91CF9168
:1005D0000895CF93DF9300D0CDB7DEB789836A83C8
:1005E0008981843008F073C08A81883008F06FC038
:1005F0008981882F90E08330910509F452C08430BE
:1006000091050CF064C082309105A9F18330910509
:100610000CF05DC0009719F00197B9F058C08BE35A
:1006200090E0FC018081482F8A81282F30E081E012
:1006300090E002C0880F991F2A95E2F7242F2827FF
:100640008BE390E0FC01208342C088E390E0FC0152
:100650008081482F8A81282F30E081E090E002C01D
:10066000880F991F2A95E2F7242F282788E390E026
:10067000FC0120832CC085E390E0FC018081482FA1
:100680008A81282F30E081E090E002C0880F991F16
:100690002A95E2F7242F282785E390E0FC012083A8
:1006A00016C082E390E0FC018081482F8A81282FC8
:1006B00030E081E090E002C0880F991F2A95E2F7B0
:1006C000242F282782E390E0FC0120830000000013
:1006D0000F900F90DF91CF910895CF93DF9300D0CB
:1006E000CDB7DEB789836A838981843060F58981DB
:1006F000882F90E08330910501F1843091051CF53D
:1007000082309105A1F083309105ECF4009719F047
:10071000019739F018C08AE390E02A81FC01208318
:1007200012C087E390E02A81FC0120830CC084E39F
:1007300090E02A81FC01208306C081E390E02A81B9
:10074000FC012083000000000F900F90DF91CF91FB
:100750000895CF93DF9300D0CDB7DEB789836A8346
:100760008981843060F58981882F90E083309105FC
:1007700001F1843091051CF582309105A1F08330A0
:100780009105ECF4009719F0019739F018C08BE34C
:1007900090E02A81FC01208312C088E390E02A8146
:1007A000FC0120830CC085E390E02A81FC012083BA
:1007B00006C082E390E02A81FC0120830000000053
:1007C0000F900F90DF91CF910895CF93DF93CDB726
:1007D000DEB78AE390E021E0FC01208387E390E02C
:1007E000FC01108284E390E0FC01108281E390E040
:1007F000FC0110828BE390E0FC01108288E390E022
:10080000FC01108285E390E0FC01108282E390E01D
:1008100024E0FC0120830000DF91CF910895CF9365
:10082000DF9300D0CDB7DEB789836A8389818330B7
:1008300008F060C08A81843008F05CC08981882F0C
:1008400090E082309105C1F1833091050CF054C0E5
:10085000009719F00197A9F04FC085E590E0FC01E1
:10086000208185E590E02C7FFC01208385E590E0E8
:10087000FC01308185E590E02A81232BFC01208357
:100880003CC085E590E0FC01208185E590E0237F78
:10089000FC01208385E590E0FC018081282F8A817E
:1008A000882F90E0880F991F880F991F282B85E5C6
:1008B00090E0FC01208321C08A81882F90E0823063
:1008C000910519F0039759F018C084E590E0FC01F8
:1008D000208184E590E02F7BFC0120830AC084E521
:1008E00090E0FC01208184E590E02064FC012083FD
:1008F000000003C0000001C0000000000F900F9036
:10090000DF91CF910895CF93DF930F92CDB7DEB7EC
:1009100089838981833060F58981882F90E08230D6
:100920009105E1F08330910524F5009719F00197C6
:1009300059F01FC08BE590E0FC0120818BE590E031
:100940002064FC01208315C08BE590E0FC01208130
:100950008BE590E02068FC0120830BC08BE590E0E4
:10096000FC0120818BE590E02062FC01208301C026
:10097000000000000F90DF91CF910895CF93DF9397
:100980000F92CDB7DEB789838981833060F5898185
:10099000882F90E082309105E1F08330910524F5B5
:1009A000009719F0019759F01FC08BE590E0FC010A
:1009B00020818BE590E02F7BFC01208315C08BE527
:1009C00090E0FC0120818BE590E02F77FC012083F3
:1009D0000BC08BE590E0FC0120818BE590E02F7D42
:1009E000FC01208301C0000000000F90DF91CF9137
:1009F0000895CF93DF930F92CDB7DEB789838981B6
:100A0000833060F58981882F90E082309105E1F094
:100A10008330910524F5009719F0019759F01FC014
:100A20008AE590E0FC0120818AE590E02064FC01E9
:100A3000208315C08AE590E0FC0120818AE590E0E2
:100A40002068FC0120830BC08AE590E0FC01208136
:100A50008AE590E02062FC01208301C000000000D4
:100A60000F90DF91CF910895CF93DF9300D00F9235
:100A7000CDB7DEB789837B836A838981833038F57C
:100A80008A819B81892B19F18981882F90E082309E
:100A90009105B1F083309105DCF4009719F00197CE
:100AA00041F016C08A819B81909361008093600021
:100AB0000FC08A819B81909363008093620008C07D
:100AC0008A819B81909365008093640001C000003F
:100AD00000000F900F900F90DF91CF9108951F921B
:100AE0000F920FB60F9211242F933F934F935F9362
:100AF0006F937F938F939F93AF93BF93EF93FF93E6
:100B0000CF93DF93CDB7DEB7809160009091610005
:100B1000892B31F08091600090916100FC01099572
:100B20000000DF91CF91FF91EF91BF91AF919F9125
:100B30008F917F916F915F914F913F912F910F9086
:100B40000FBE0F901F9018951F920F920FB60F9225
:100B500011242F933F934F935F936F937F938F93C2
:100B60009F93AF93BF93EF93FF93CF93DF93CDB753
:100B7000DEB78091620090916300892B31F0809103
:100B8000620090916300FC0109950000DF91CF9114
:100B9000FF91EF91BF91AF919F918F917F916F9155
:100BA0005F914F913F912F910F900FBE0F901F902B
:100BB00018951F920F920FB60F9211242F933F9307
:100BC0004F935F936F937F938F939F93AF93BF9355
:100BD000EF93FF93CF93DF93CDB7DEB7809164009F
:100BE00090916500892B31F08091640090916500AF
:100BF000FC0109950000DF91CF91FF91EF91BF912A
:100C0000AF919F918F917F916F915F914F913F91A4
:100C10002F910F900FBE0F901F901895CF93DF93D9
:100C2000CDB7DEB78FE590E0FC0120818FE590E045
:100C30002068FC0120830000DF91CF910895CF93BD
:100C4000DF93CDB7DEB78FE590E0FC0120818FE523
:100C500090E02F77FC0120830000DF91CF91089571
:100C6000CF93DF9300D0CDB7DEB789836A8341E0AD
:100C70006A8189810E946B0100000F900F90DF91C3
:100C8000CF910895CF93DF9300D0CDB7DEB789839E
:100C90006A8340E06A8189810E946B0100000F90A5
:100CA0000F90DF91CF910895CF93DF9300D0CDB710
:100CB000DEB789836A836A8189810E94E902000024
:0E0CC0000F900F90DF91CF910895F894FFCF21
:00000001FF
